:0300000002098D65
:0C098D00787FE4F6D8FD7581190209D4CA
:0C0A64000A083F065B4F666D7D077F6F40
:100A4F00EFFD3395E0FCD3ED9400EC64809480408F
:050A5F00031F80EC22E2
:1008FF008F198E188D178C16E47BE87A03F9F8118F
:10090F003C74082FF8E6F5A0D2807F1E514FC280AD
:10091F00E47B64FAF9F8AF19AE18AD17AC16113CB9
:10092F00E47B0AFAF9F8113C74082BF8E6F5A0D22B
:10093F00817F1E514FC281E47B0AFAF9F8AF19AEDD
:10094F0018AD17AC16113CE47B0AFAF9F8113C7498
:10095F00082BF8E6F5A0D2827F1E514FC282E47BAE
:10096F000AFAF9F8AF19AE18AD17AC16113C7408A6
:0E097F002BF8E6F5A0D2837F1E514FC28322D3
:100A1900E4751501F514F513F512781211DF8F1528
:100A29008E148D138C1211FFE47F0F7E27FDFCAB12
:100A390015AA14A913A812C311CE70DEF515F51461
:060A4900F513F51280D444
:10099900020A19E493A3F8E493A34003F68001F251
:1009A90008DFF48029E493A3F85407240CC8C3335F
:1009B900C4540F4420C8834004F456800146F6DF2E
:1009C900E4800B0102040810204080900A64E47E50
:1009D900019360BCA3FF543F30E509541FFEE49323
:1009E900A360010ECF54C025E060A840B8E493A3EA
:1009F900FAE493A3F8E493A3C8C582C8CAC583CA15
:100A0900F0A3C8C582C8CAC583CADFE9DEE780BECC
:010A70000085
:1008000075F008758200EF2FFFEE33FECD33CDCCAF
:1008100033CCC58233C5829BED9AEC99E582984032
:100820000CF582EE9BFEED9AFDEC99FC0FD5F0D60F
:10083000E4CEFBE4CDFAE4CCF9A88222B800C1B939
:100840000059BA002DEC8BF084CFCECDFCE5F0CB77
:10085000F97818EF2FFFEE33FEED33FDEC33FCEBB0
:1008600033FB10D703994004EB99FB0FD8E5E4F96B
:10087000FA227818EF2FFFEE33FEED33FDEC33FC58
:10088000C933C910D7059BE99A4007EC9BFCE99A4C
:10089000F90FD8E0E4C9FAE4CCFB2275F010EF2F91
:1008A000FFEE33FEED33FDCC33CCC833C810D70791
:1008B0009BEC9AE899400AED9BFDEC9AFCE899F8CC
:0E08C0000FD5F0DAE4CDFBE4CCFAE4C8F9225F
:1008CE00EB9FF5F0EA9E42F0E99D42F0E89C45F080
:0108DE0022F7
:1008DF007401FF3395E0FEFDFC080808E62FFFF6D4
:1008EF0018E63EFEF618E63DFDF618E63CFCF6224D
:00000001FF
